{
  "abi": [
    {
      "type": "constructor",
      "inputs": [
        {
          "name": "_maticUsdFeed",
          "type": "address",
          "internalType": "address"
        }
      ],
      "stateMutability": "nonpayable"
    },
    {
      "type": "function",
      "name": "MATIC_TO_RGLM",
      "inputs": [],
      "outputs": [
        {
          "name": "",
          "type": "uint256",
          "internalType": "uint256"
        }
      ],
      "stateMutability": "view"
    },
    {
      "type": "function",
      "name": "MAX_SUPPLY",
      "inputs": [],
      "outputs": [
        {
          "name": "",
          "type": "uint256",
          "internalType": "uint256"
        }
      ],
      "stateMutability": "view"
    },
    {
      "type": "function",
      "name": "allowance",
      "inputs": [
        {
          "name": "owner",
          "type": "address",
          "internalType": "address"
        },
        {
          "name": "spender",
          "type": "address",
          "internalType": "address"
        }
      ],
      "outputs": [
        {
          "name": "",
          "type": "uint256",
          "internalType": "uint256"
        }
      ],
      "stateMutability": "view"
    },
    {
      "type": "function",
      "name": "approve",
      "inputs": [
        {
          "name": "spender",
          "type": "address",
          "internalType": "address"
        },
        {
          "name": "value",
          "type": "uint256",
          "internalType": "uint256"
        }
      ],
      "outputs": [
        {
          "name": "",
          "type": "bool",
          "internalType": "bool"
        }
      ],
      "stateMutability": "nonpayable"
    },
    {
      "type": "function",
      "name": "balanceOf",
      "inputs": [
        {
          "name": "account",
          "type": "address",
          "internalType": "address"
        }
      ],
      "outputs": [
        {
          "name": "",
          "type": "uint256",
          "internalType": "uint256"
        }
      ],
      "stateMutability": "view"
    },
    {
      "type": "function",
      "name": "decimals",
      "inputs": [],
      "outputs": [
        {
          "name": "",
          "type": "uint8",
          "internalType": "uint8"
        }
      ],
      "stateMutability": "view"
    },
    {
      "type": "function",
      "name": "getMaticPriceInUSD",
      "inputs": [],
      "outputs": [
        {
          "name": "",
          "type": "uint256",
          "internalType": "uint256"
        }
      ],
      "stateMutability": "view"
    },
    {
      "type": "function",
      "name": "getPriceInMatic",
      "inputs": [],
      "outputs": [
        {
          "name": "",
          "type": "uint256",
          "internalType": "uint256"
        }
      ],
      "stateMutability": "pure"
    },
    {
      "type": "function",
      "name": "getRglmPriceInUSD",
      "inputs": [],
      "outputs": [
        {
          "name": "",
          "type": "uint256",
          "internalType": "uint256"
        }
      ],
      "stateMutability": "view"
    },
    {
      "type": "function",
      "name": "name",
      "inputs": [],
      "outputs": [
        {
          "name": "",
          "type": "string",
          "internalType": "string"
        }
      ],
      "stateMutability": "view"
    },
    {
      "type": "function",
      "name": "owner",
      "inputs": [],
      "outputs": [
        {
          "name": "",
          "type": "address",
          "internalType": "address"
        }
      ],
      "stateMutability": "view"
    },
    {
      "type": "function",
      "name": "renounceOwnership",
      "inputs": [],
      "outputs": [],
      "stateMutability": "nonpayable"
    },
    {
      "type": "function",
      "name": "symbol",
      "inputs": [],
      "outputs": [
        {
          "name": "",
          "type": "string",
          "internalType": "string"
        }
      ],
      "stateMutability": "view"
    },
    {
      "type": "function",
      "name": "totalSupply",
      "inputs": [],
      "outputs": [
        {
          "name": "",
          "type": "uint256",
          "internalType": "uint256"
        }
      ],
      "stateMutability": "view"
    },
    {
      "type": "function",
      "name": "transfer",
      "inputs": [
        {
          "name": "to",
          "type": "address",
          "internalType": "address"
        },
        {
          "name": "value",
          "type": "uint256",
          "internalType": "uint256"
        }
      ],
      "outputs": [
        {
          "name": "",
          "type": "bool",
          "internalType": "bool"
        }
      ],
      "stateMutability": "nonpayable"
    },
    {
      "type": "function",
      "name": "transferFrom",
      "inputs": [
        {
          "name": "from",
          "type": "address",
          "internalType": "address"
        },
        {
          "name": "to",
          "type": "address",
          "internalType": "address"
        },
        {
          "name": "value",
          "type": "uint256",
          "internalType": "uint256"
        }
      ],
      "outputs": [
        {
          "name": "",
          "type": "bool",
          "internalType": "bool"
        }
      ],
      "stateMutability": "nonpayable"
    },
    {
      "type": "function",
      "name": "transferOwnership",
      "inputs": [
        {
          "name": "newOwner",
          "type": "address",
          "internalType": "address"
        }
      ],
      "outputs": [],
      "stateMutability": "nonpayable"
    },
    {
      "type": "event",
      "name": "Approval",
      "inputs": [
        {
          "name": "owner",
          "type": "address",
          "indexed": true,
          "internalType": "address"
        },
        {
          "name": "spender",
          "type": "address",
          "indexed": true,
          "internalType": "address"
        },
        {
          "name": "value",
          "type": "uint256",
          "indexed": false,
          "internalType": "uint256"
        }
      ],
      "anonymous": false
    },
    {
      "type": "event",
      "name": "OwnershipTransferred",
      "inputs": [
        {
          "name": "previousOwner",
          "type": "address",
          "indexed": true,
          "internalType": "address"
        },
        {
          "name": "newOwner",
          "type": "address",
          "indexed": true,
          "internalType": "address"
        }
      ],
      "anonymous": false
    },
    {
      "type": "event",
      "name": "Transfer",
      "inputs": [
        {
          "name": "from",
          "type": "address",
          "indexed": true,
          "internalType": "address"
        },
        {
          "name": "to",
          "type": "address",
          "indexed": true,
          "internalType": "address"
        },
        {
          "name": "value",
          "type": "uint256",
          "indexed": false,
          "internalType": "uint256"
        }
      ],
      "anonymous": false
    },
    {
      "type": "error",
      "name": "ERC20InsufficientAllowance",
      "inputs": [
        {
          "name": "spender",
          "type": "address",
          "internalType": "address"
        },
        {
          "name": "allowance",
          "type": "uint256",
          "internalType": "uint256"
        },
        {
          "name": "needed",
          "type": "uint256",
          "internalType": "uint256"
        }
      ]
    },
    {
      "type": "error",
      "name": "ERC20InsufficientBalance",
      "inputs": [
        {
          "name": "sender",
          "type": "address",
          "internalType": "address"
        },
        {
          "name": "balance",
          "type": "uint256",
          "internalType": "uint256"
        },
        {
          "name": "needed",
          "type": "uint256",
          "internalType": "uint256"
        }
      ]
    },
    {
      "type": "error",
      "name": "ERC20InvalidApprover",
      "inputs": [
        {
          "name": "approver",
          "type": "address",
          "internalType": "address"
        }
      ]
    },
    {
      "type": "error",
      "name": "ERC20InvalidReceiver",
      "inputs": [
        {
          "name": "receiver",
          "type": "address",
          "internalType": "address"
        }
      ]
    },
    {
      "type": "error",
      "name": "ERC20InvalidSender",
      "inputs": [
        {
          "name": "sender",
          "type": "address",
          "internalType": "address"
        }
      ]
    },
    {
      "type": "error",
      "name": "ERC20InvalidSpender",
      "inputs": [
        {
          "name": "spender",
          "type": "address",
          "internalType": "address"
        }
      ]
    },
    {
      "type": "error",
      "name": "OwnableInvalidOwner",
      "inputs": [
        {
          "name": "owner",
          "type": "address",
          "internalType": "address"
        }
      ]
    },
    {
      "type": "error",
      "name": "OwnableUnauthorizedAccount",
      "inputs": [
        {
          "name": "account",
          "type": "address",
          "internalType": "address"
        }
      ]
    }
  ],
  "bytecode": {
    "object": "0x608060405234801561001057600080fd5b50604051610ec4380380610ec483398101604081905261002f916102bc565b336040518060400160405280600e81526020016d2932b3b0b634bab6902a37b5b2b760911b8152506040518060400160405280600481526020016352474c4d60e01b8152508160039081610083919061038b565b506004610090828261038b565b5050506001600160a01b0381166100c257604051631e4fbdf760e01b8152600060048201526024015b60405180910390fd5b6100cb81610106565b506100e1336a295be96e64066972000000610158565b600680546001600160a01b0319166001600160a01b0392909216919091179055610470565b600580546001600160a01b038381166001600160a01b0319831681179093556040519116919082907f8be0079c531659141344cd1fd0a4f28419497f9722a3daafe3b4186f6b6457e090600090a35050565b6001600160a01b0382166101825760405163ec442f0560e01b8152600060048201526024016100b9565b61018e60008383610192565b5050565b6001600160a01b0383166101bd5780600260008282546101b29190610449565b9091555061022f9050565b6001600160a01b038316600090815260208190526040902054818110156102105760405163391434e360e21b81526001600160a01b038516600482015260248101829052604481018390526064016100b9565b6001600160a01b03841660009081526020819052604090209082900390555b6001600160a01b03821661024b5760028054829003905561026a565b6001600160a01b03821660009081526020819052604090208054820190555b816001600160a01b0316836001600160a01b03167fddf252ad1be2c89b69c2b068fc378daa952ba7f163c4a11628f55a4df523b3ef836040516102af91815260200190565b60405180910390a3505050565b6000602082840312156102ce57600080fd5b81516001600160a01b03811681146102e557600080fd5b9392505050565b634e487b7160e01b600052604160045260246000fd5b600181811c9082168061031657607f821691505b60208210810361033657634e487b7160e01b600052602260045260246000fd5b50919050565b601f82111561038657806000526020600020601f840160051c810160208510156103635750805b601f840160051c820191505b81811015610383576000815560010161036f565b50505b505050565b81516001600160401b038111156103a4576103a46102ec565b6103b8816103b28454610302565b8461033c565b6020601f8211600181146103ec57600083156103d45750848201515b600019600385901b1c1916600184901b178455610383565b600084815260208120601f198516915b8281101561041c57878501518255602094850194600190920191016103fc565b508482101561043a5786840151600019600387901b60f8161c191681555b50505050600190811b01905550565b8082018082111561046a57634e487b7160e01b600052601160045260246000fd5b92915050565b610a458061047f6000396000f3fe608060405234801561001057600080fd5b506004361061010b5760003560e01c806370a08231116100a257806395d89b411161007157806395d89b41146101fc578063a9059cbb14610204578063dd62ed3e14610217578063eebea08b14610250578063f2fde38b1461025857600080fd5b806370a08231146101a6578063715018a6146101cf57806373a63930146101d95780638da5cb5b146101e157600080fd5b8063313ce567116100de578063313ce5671461017657806332cb6b0c1461018557806348c659d51461019757806349e9c0771461019e57600080fd5b806306fdde0314610110578063095ea7b31461012e57806318160ddd1461015157806323b872dd14610163575b600080fd5b61011861026b565b6040516101259190610805565b60405180910390f35b61014161013c36600461086a565b6102fd565b6040519015158152602001610125565b6002545b604051908152602001610125565b610141610171366004610894565b610317565b60405160128152602001610125565b6101556a295be96e6406697200000081565b6002610155565b61015561033b565b6101556101b43660046108d1565b6001600160a01b031660009081526020819052604090205490565b6101d7610359565b005b610155600281565b6005546040516001600160a01b039091168152602001610125565b61011861036d565b61014161021236600461086a565b61037c565b6101556102253660046108f3565b6001600160a01b03918216600090815260016020908152604080832093909416825291909152205490565b61015561038a565b6101d76102663660046108d1565b610459565b60606003805461027a90610926565b80601f01602080910402602001604051908101604052809291908181526020018280546102a690610926565b80156102f35780601f106102c8576101008083540402835291602001916102f3565b820191906000526020600020905b8154815290600101906020018083116102d657829003601f168201915b5050505050905090565b60003361030b818585610497565b60019150505b92915050565b6000336103258582856104a9565b610330858585610528565b506001949350505050565b60008061034661038a565b9050610353600282610960565b91505090565b610361610587565b61036b60006105b4565b565b60606004805461027a90610926565b60003361030b818585610528565b600080600660009054906101000a90046001600160a01b03166001600160a01b031663feaf968c6040518163ffffffff1660e01b815260040160a060405180830381865afa1580156103e0573d6000803e3d6000fd5b505050506040513d601f19601f82011682018060405250810190610404919061099c565b505050915050600081136104545760405162461bcd60e51b8152602060048201526012602482015271496e76616c6964207072696365206461746160701b60448201526064015b60405180910390fd5b919050565b610461610587565b6001600160a01b03811661048b57604051631e4fbdf760e01b81526000600482015260240161044b565b610494816105b4565b50565b6104a48383836001610606565b505050565b6001600160a01b03838116600090815260016020908152604080832093861683529290522054600019811015610522578181101561051357604051637dc7a0d960e11b81526001600160a01b0384166004820152602481018290526044810183905260640161044b565b61052284848484036000610606565b50505050565b6001600160a01b03831661055257604051634b637e8f60e11b81526000600482015260240161044b565b6001600160a01b03821661057c5760405163ec442f0560e01b81526000600482015260240161044b565b6104a48383836106db565b6005546001600160a01b0316331461036b5760405163118cdaa760e01b815233600482015260240161044b565b600580546001600160a01b038381166001600160a01b0319831681179093556040519116919082907f8be0079c531659141344cd1fd0a4f28419497f9722a3daafe3b4186f6b6457e090600090a35050565b6001600160a01b0384166106305760405163e602df0560e01b81526000600482015260240161044b565b6001600160a01b03831661065a57604051634a1406b160e11b81526000600482015260240161044b565b6001600160a01b038085166000908152600160209081526040808320938716835292905220829055801561052257826001600160a01b0316846001600160a01b03167f8c5be1e5ebec7d5bd14f71427d1e84f3dd0314c0f7b2291e5b200ac8c7c3b925846040516106cd91815260200190565b60405180910390a350505050565b6001600160a01b0383166107065780600260008282546106fb91906109ee565b909155506107789050565b6001600160a01b038316600090815260208190526040902054818110156107595760405163391434e360e21b81526001600160a01b0385166004820152602481018290526044810183905260640161044b565b6001600160a01b03841660009081526020819052604090209082900390555b6001600160a01b038216610794576002805482900390556107b3565b6001600160a01b03821660009081526020819052604090208054820190555b816001600160a01b0316836001600160a01b03167fddf252ad1be2c89b69c2b068fc378daa952ba7f163c4a11628f55a4df523b3ef836040516107f891815260200190565b60405180910390a3505050565b602081526000825180602084015260005b818110156108335760208186018101516040868401015201610816565b506000604082850101526040601f19601f83011684010191505092915050565b80356001600160a01b038116811461045457600080fd5b6000806040838503121561087d57600080fd5b61088683610853565b946020939093013593505050565b6000806000606084860312156108a957600080fd5b6108b284610853565b92506108c060208501610853565b929592945050506040919091013590565b6000602082840312156108e357600080fd5b6108ec82610853565b9392505050565b6000806040838503121561090657600080fd5b61090f83610853565b915061091d60208401610853565b90509250929050565b600181811c9082168061093a57607f821691505b60208210810361095a57634e487b7160e01b600052602260045260246000fd5b50919050565b60008261097d57634e487b7160e01b600052601260045260246000fd5b500490565b805169ffffffffffffffffffff8116811461045457600080fd5b600080600080600060a086880312156109b457600080fd5b6109bd86610982565b602087015160408801516060890151929750909550935091506109e260808701610982565b90509295509295909350565b8082018082111561031157634e487b7160e01b600052601160045260246000fdfea26469706673582212209a37cd98e8d383c8592b4e3a1e97d13cca7a5fc11d3aac1b86fa97f66e6c5bab64736f6c634300081a0033",
    "linkReferences": {}
  },
  "methodIdentifiers": {
    "MATIC_TO_RGLM()": "73a63930",
    "MAX_SUPPLY()": "32cb6b0c",
    "allowance(address,address)": "dd62ed3e",
    "approve(address,uint256)": "095ea7b3",
    "balanceOf(address)": "70a08231",
    "decimals()": "313ce567",
    "getMaticPriceInUSD()": "eebea08b",
    "getPriceInMatic()": "48c659d5",
    "getRglmPriceInUSD()": "49e9c077",
    "name()": "06fdde03",
    "owner()": "8da5cb5b",
    "renounceOwnership()": "715018a6",
    "symbol()": "95d89b41",
    "totalSupply()": "18160ddd",
    "transfer(address,uint256)": "a9059cbb",
    "transferFrom(address,address,uint256)": "23b872dd",
    "transferOwnership(address)": "f2fde38b"
  },
  "id": 37
}