{
  "abi": [
    {
      "type": "constructor",
      "inputs": [
        {
          "name": "_token",
          "type": "address",
          "internalType": "address"
        }
      ],
      "stateMutability": "nonpayable"
    },
    {
      "type": "function",
      "name": "calculateReward",
      "inputs": [
        {
          "name": "user",
          "type": "address",
          "internalType": "address"
        }
      ],
      "outputs": [
        {
          "name": "",
          "type": "uint256",
          "internalType": "uint256"
        }
      ],
      "stateMutability": "view"
    },
    {
      "type": "function",
      "name": "claimReward",
      "inputs": [],
      "outputs": [],
      "stateMutability": "nonpayable"
    },
    {
      "type": "function",
      "name": "rewardRatePerSecond",
      "inputs": [],
      "outputs": [
        {
          "name": "",
          "type": "uint256",
          "internalType": "uint256"
        }
      ],
      "stateMutability": "view"
    },
    {
      "type": "function",
      "name": "stake",
      "inputs": [
        {
          "name": "amount",
          "type": "uint256",
          "internalType": "uint256"
        }
      ],
      "outputs": [],
      "stateMutability": "nonpayable"
    },
    {
      "type": "function",
      "name": "stakeTimestamps",
      "inputs": [
        {
          "name": "",
          "type": "address",
          "internalType": "address"
        }
      ],
      "outputs": [
        {
          "name": "",
          "type": "uint256",
          "internalType": "uint256"
        }
      ],
      "stateMutability": "view"
    },
    {
      "type": "function",
      "name": "stakedBalances",
      "inputs": [
        {
          "name": "",
          "type": "address",
          "internalType": "address"
        }
      ],
      "outputs": [
        {
          "name": "",
          "type": "uint256",
          "internalType": "uint256"
        }
      ],
      "stateMutability": "view"
    },
    {
      "type": "function",
      "name": "token",
      "inputs": [],
      "outputs": [
        {
          "name": "",
          "type": "address",
          "internalType": "contract IERC20"
        }
      ],
      "stateMutability": "view"
    },
    {
      "type": "function",
      "name": "unstake",
      "inputs": [
        {
          "name": "amount",
          "type": "uint256",
          "internalType": "uint256"
        }
      ],
      "outputs": [],
      "stateMutability": "nonpayable"
    },
    {
      "type": "error",
      "name": "SafeERC20FailedOperation",
      "inputs": [
        {
          "name": "token",
          "type": "address",
          "internalType": "address"
        }
      ]
    }
  ],
  "bytecode": {
    "object": "0x6080604052662386f26fc10000600355348015601a57600080fd5b5060405161074c38038061074c833981016040819052603791605b565b600080546001600160a01b0319166001600160a01b03929092169190911790556089565b600060208284031215606c57600080fd5b81516001600160a01b0381168114608257600080fd5b9392505050565b6106b4806100986000396000f3fe608060405234801561001057600080fd5b50600436106100885760003560e01c8063a694fc3a1161005b578063a694fc3a146100fe578063b88a802f14610111578063d82e396214610119578063fc0c546a1461012c57600080fd5b80631460fa871461008d5780632e17de78146100c05780635d773b2c146100d557806399f853a5146100de575b600080fd5b6100ad61009b3660046105a1565b60016020526000908152604090205481565b6040519081526020015b60405180910390f35b6100d36100ce3660046105d1565b610157565b005b6100ad60035481565b6100ad6100ec3660046105a1565b60026020526000908152604090205481565b6100d361010c3660046105d1565b610277565b6100d361032a565b6100ad6101273660046105a1565b610347565b60005461013f906001600160a01b031681565b6040516001600160a01b0390911681526020016100b7565b600081116101a25760405162461bcd60e51b815260206004820152601360248201527243616e6e6f7420756e7374616b65207a65726f60681b60448201526064015b60405180910390fd5b336000908152600160205260409020548111156101f55760405162461bcd60e51b8152602060048201526011602482015270139bdd08195b9bdd59da081cdd185ad959607a1b6044820152606401610199565b6101fe336103c8565b336000908152600160205260408120805483929061021d908490610600565b9091555050600054610239906001600160a01b03163383610492565b336000908152600160205260408120549003610262573360009081526002602052604081205550565b33600090815260026020526040902042905550565b600081116102bb5760405162461bcd60e51b815260206004820152601160248201527043616e6e6f74207374616b65207a65726f60781b6044820152606401610199565b33600090815260016020526040902054156102d9576102d9336103c8565b6000546102f1906001600160a01b03163330846104f1565b3360009081526001602052604081208054839290610310908490610619565b909155505033600090815260026020526040902042905550565b610333336103c8565b336000908152600260205260409020429055565b6001600160a01b0381166000908152600160209081526040808320546002909252822054811580610376575080155b15610385575060009392505050565b60006103918242610600565b9050670de0b6b3a764000081600354856103ab919061062c565b6103b5919061062c565b6103bf9190610643565b95945050505050565b60006103d382610347565b6001600160a01b0383811660009081526001602052604080822054825491516370a0823160e01b81523060048201529495509193919216906370a0823190602401602060405180830381865afa158015610431573d6000803e3d6000fd5b505050506040513d601f19601f820116820180604052508101906104559190610665565b61045f9190610600565b90506000821180156104715750818110155b1561048d5760005461048d906001600160a01b03168484610492565b505050565b6040516001600160a01b0383811660248301526044820183905261048d91859182169063a9059cbb906064015b604051602081830303815290604052915060e01b6020820180516001600160e01b038381831617835250505050610530565b6040516001600160a01b03848116602483015283811660448301526064820183905261052a9186918216906323b872dd906084016104bf565b50505050565b600080602060008451602086016000885af180610553576040513d6000823e3d81fd5b50506000513d9150811561056b578060011415610578565b6001600160a01b0384163b155b1561052a57604051635274afe760e01b81526001600160a01b0385166004820152602401610199565b6000602082840312156105b357600080fd5b81356001600160a01b03811681146105ca57600080fd5b9392505050565b6000602082840312156105e357600080fd5b5035919050565b634e487b7160e01b600052601160045260246000fd5b81810381811115610613576106136105ea565b92915050565b80820180821115610613576106136105ea565b8082028115828204841417610613576106136105ea565b60008261066057634e487b7160e01b600052601260045260246000fd5b500490565b60006020828403121561067757600080fd5b505191905056fea2646970667358221220d5f4ee7f2198b70735e07110cab5d8f364e7df2ba6e89ba9e88cd42c72e3b7ba64736f6c634300081a0033",
    "linkReferences": {}
  },
  "methodIdentifiers": {
    "calculateReward(address)": "d82e3962",
    "claimReward()": "b88a802f",
    "rewardRatePerSecond()": "5d773b2c",
    "stake(uint256)": "a694fc3a",
    "stakeTimestamps(address)": "99f853a5",
    "stakedBalances(address)": "1460fa87",
    "token()": "fc0c546a",
    "unstake(uint256)": "2e17de78"
  },
  "id": 41
}